:020000040800F2
:10000000A0B30120A101000859310008DF11000848
:1000100009300008C70F00088B3F000800000000EF
:10002000000000000000000000000000F13800089F
:10003000CB0F000800000000F5310008093A000865
:10004000BB010008BB010008BB01000841380008E3
:10005000BB010008BB010008BB010008BB01000890
:10006000BB010008BB010008BB010008BB01000880
:10007000BB010008BB010008BB010008BB01000870
:10008000BB010008BB010008BB010008BB01000860
:10009000BB010008BB010008BB010008BB01000850
:1000A000BB010008BB010008BB010008BB01000840
:1000B000BB010008BB010008BB010008BB01000830
:1000C000BB010008BB010008BB010008BB01000820
:1000D000BB010008D93B0008BB010008613C0008D7
:1000E000BB01000855340008BB010008BB01000833
:1000F000BB010008BB010008BB010008BB010008F0
:10010000BB010008BB010008BB010008BB010008DF
:10011000BB010008BB010008BB010008753A0008DC
:10012000BB010008BB010008BB010008BB010008BF
:10013000BB010008BB010008BB010008BB010008AF
:10014000BB010008BB010008BB010008BB0100089F
:10015000BB010008BB010008BB010008BB0100088F
:10016000BB010008BB010008BB010008BB0100087F
:10017000BB010008BB010008BB010008BB0100086F
:10018000BB010008BB010008DFF810D000F056FEEC
:100190000048004751750008AFF30080A0B301206C
:1001A0000648804706480047FEE7FEE7FEE7FEE711
:1001B000FEE7FEE7FEE7FEE7FEE7FEE70D3A000892
:1001C000890100082DE9F0410024061B254671F144
:1001D000000605DA01240027D0EB070067EB0101D8
:1001E000161E73F1000605DA0027D2EB070201257F
:1001F00067EB030300F0FEFB86460E4617469C465F
:10020000AC4204D00025D0EB050E65EB010624B10D
:100210000020D2EB000760EB030C704631463A46F3
:100220006346BDE8F081A0F14101192900D82030D2
:10023000704740EA01039B0703D009E008C9121F79
:1002400008C0042AFAD203E011F8013B00F8013B90
:10025000521EF9D27047D2B201E000F8012B491EBC
:10026000FBD270470022F6E710B513460A46044653
:100270001946FFF7F0FF204610BD30B505462A4667
:100280000B4612F8010B13F8014B08B1A042F8D04D
:100290001CB1002802D06D1CF1E7284630BD421C7D
:1002A00010F8011B0029FBD1801A704710B50022FD
:1002B00000E0521C835C8C5CA34201D1002BF8D17E
:1002C000D8B2E1B2401A10BD30B505460020034651
:1002D00000E05B1C934205D2EC5CC85C201A01D1A3
:1002E000002CF6D130BD00002DE9FF4F087883B017
:1002F0009946FF2805D0491C2D2804D00024002051
:1003000008E000200BE00124F9E700EB800003EB9C
:100310004000491C0B78FF2BF7D104B14042002369
:100320000293147819461D462D2C01D02B2C04D194
:10033000521C2D2C13D000240294AA461478FF2CB2
:100340000FD00A25A3FB057801FB05814FF0000CB7
:1003500003FB0C11521CE3194AEB0101EEE70124E7
:10036000EAE7814453EA010002D019F5C87F06DAB2
:1003700003980021C0E9001107B0BDE8F08F002507
:10038000AE4E2F46DFF8B882184600F017FDCDE9D3
:100390000001B9F1000002DAC9F1000400E00446EE
:1003A0000023A74A1AEB030B42EB045A12E0E007C2
:1003B00007D02A4633463846414600F0F9F9074649
:1003C00088462A4633461046194600F0F1F905469C
:1003D0000E466410002CEAD1DDE90001B9F1000FEE
:1003E0005A46534606DA00F07AFC3A46434600F095
:1003F00076FC05E000F0DCF93A46434600F0D8F917
:10040000029A0AB181F00041039AC2E90001B3E700
:100410002DE9FF4F1F468DB0D7E901464FF0FF3859
:100420002E2045464FF000090B90B9696D1C0E98BF
:100430008847396A824688470028F6D1BAF1FF3FDB
:100440000AD024F4D064002E11DDBAF12B0F08D0AD
:10045000BAF12D0F0BD102E0404611B08DE744F404
:100460008064B9696D1C0E9888478246761E69467D
:10047000600501D52D2000E02B208DF8000001F152
:10048000010B0DF1200809E0B9696D1C0E98884731
:1004900082460F9844F40074761E0560002E02DD3B
:1004A000BAF1300FF0D00B998A453ED144F0800468
:1004B00006E00F99681CA9F1010944F40074086072
:1004C000B9696D1C761E0E98884782463028F0D098
:1004D0002BE00B998A4505D1200603D444F0800413
:1004E000761E18E0504604F0C3FB08B30DF113016B
:1004F000761E44F400748B4508D2AAF130000BF844
:10050000010B200607D5A9F1010003E0200602D463
:1005100009F101008146A00502D50F99681C086009
:10052000B9696D1C0E9888478246002ED1DC53E0D5
:10053000002E51DDBAF1650F02D0BAF1450F4BD153
:10054000A00549D5B9696D1C24F44074761E0E9837
:1005500088478246002E0CDD2B2804D0BAF12D0FDF
:1005600007D144F48074B9696D1C0E98884782469F
:10057000761EE00501D52D2100E02B2108F8011B96
:10058000CDF82C8021E00DF12901761E44F4007491
:1005900088450CD2AAF1300010F0FF0088F8000066
:1005A00002D10B99884509D908F1010806E0E00558
:1005B00001D5244801E042F20F708146B9696D1CF3
:1005C0000E98884782460F980560002E04DD50463D
:1005D00004F04EFB0028D6D1F9690E988847FF2019
:1005E0008BF8000088F800000020069007904B462A
:1005F0006A4608A906A8FFF777FEA00502D46FF0A7
:1006000001002AE714F0240F0AD0E00714D1DDE935
:1006100006123868031D3B600068C0E900120BE059
:10062000DDE9060100F0EEFB0146E00704D1386881
:10063000021D3A600068016028460EE70000144081
:100640000000F03FF1D8FFFF70B5064603F0EEFC66
:10065000046805460A220021304600F09BFA2C600F
:1006600070BD2DE9FE4F804681EA0300C00F0C46A5
:10067000009021F0004123F00045B8EB0200A941B1
:1006800005D24046214690461C460B46024623F0C2
:100690000040104347D0270DC7F30A00C3F30A51A7
:1006A0000290401A019040286BDAC3F3130040F423
:1006B000801B0098924620B10023D2EB030A63EB23
:1006C0000B0B01985946C0F14002504600F0C3F9A7
:1006D00006460D4650465946019A00F0DBF910EBEC
:1006E00008006141002487EA115284EAE7731A4343
:1006F00040D0009A62B3019A012A4FEA075215DCF2
:10070000001B61EB02014FF0004202EA0752CDE903
:100710000042001C41F5801132462B4600F091FA50
:1007200003B0BDE8F08F40462146F9E7001B61EBBE
:100730000201001C41F5801300185B412018A2F54E
:10074000001747EB030140EAD570B6196D4111E07F
:100750006D084FEA360645EAC0754FEA0752001B9E
:1007600061EB0201001C41F5801149084FEA30009D
:100770000019514132462B4603B0BDE8F04F00F05E
:1007800051BA0098012240000023D0EB020263EB33
:10079000E073009821464FEAE074B8EB000061EB8B
:1007A0000401E9E783F000435BE781F0004158E78B
:1007B0002DE9FE4F81EA030404F0004421F00041DA
:1007C00000944FF0000B23F0004350EA01045ED088
:1007D00052EA03045BD0C3F30A54C1F30A552C4414
:1007E000A4F2F3340194A0FB0254C1F3130141F4C9
:1007F0008011C3F3130343F4801301FB024400FB95
:10080000034E840A970A44EA815447EA8357A4FBBB
:10081000076802958D0A05FB07854FEA932C04FBB8
:100820000C542705029D4FEA065847EA1637B5EBE8
:1008300008056EEB070C870E920E47EA811742EA15
:100840008312A7FB0201B6EB0B0164EB00042B0D36
:1008500043EA0C335E1844EB1C50DA465146E7FB82
:100860000201C5F313044FEA0B3343EA14534FEA72
:100870000432019C43EA0603A4F10C040294009C98
:10088000CDE900B400F0DDF903B0BDE8F08F002041
:100890000146F9E70EB5C10F80EAE0700844CA07C7
:1008A000002140F233438DE80E000A460B4600F06B
:1008B000C8F903B000BD0EB540F2334102910021EA
:1008C000CDE900110A460B4600F0BBF903B000BDAC
:1008D00070B5C1F30A5201F000450024C1F31301C1
:1008E00040F2FF3341F480119A4201DA002070BDDA
:1008F00040F233439A42A2F2334203DC524200F008
:10090000B9F800E090402C43F1D0404270BDC1F3F3
:100910000A5210B5C1F3130140F2FF3341F48011C4
:100920009A4201DA002010BD40F233439A42A2F20B
:10093000334203DC524200F09DF810BD904010BDE0
:1009400000F0004230F000400AD0C10D01F56071A6
:10095000C0F3160042EA0151C20840071143704734
:10096000002001467047000030B5041E71F10004FC
:1009700004DB4FF00044404264EB0101141E73F1AC
:10098000000405DB1C464FF00043524263EB0403B6
:100990008B4208BF824230BD30B5041E71F10004A5
:1009A00004DB4FF00044404264EB0101141E73F17C
:1009B000000405DB1C464FF00043524263EB040386
:1009C000994208BF904230BD30B50B460146002029
:1009D0002022012409E021FA02F59D4205D303FA01
:1009E00002F5491B04FA02F52844151EA2F1010282
:1009F000F1DC30BD2DE9F05F0546002092469B46B4
:100A000088460646814640241BE028464146474624
:100A1000224600F02FF853465A46C01A914110D38F
:100A200011461846224600F016F82D1A67EB010809
:100A30004F4622460120002100F00DF817EB000977
:100A40004E41201EA4F10104DFDC484631462A460F
:100A50004346BDE8F09F202A04DB203A00FA02F169
:100A6000002070479140C2F1200320FA03F319439C
:100A700090407047202A04DB203A21FA02F000213E
:100A8000704721FA02F3D040C2F12002914008439E
:100A900019467047202A06DBCB17203A41FA02F0AC
:100AA00043EAE07306E041FA02F3D040C2F12002CB
:100AB0009140084319467047426842B1016811F8F5
:100AC000013B23B1521EC0E90012184670470121B4
:100AD000C160881E704742685AB1C368016843B953
:100AE00083688B4205D0491E521CC0E900120020C9
:100AF00070474FF0FF3070470FB4002300B589B046
:100B00000CA900910B996FF00042CB601E4B06932D
:100B10001E4B07930423CDE901321D4A0892024679
:100B20006B460020FFF774FC09B05DF814FB70B54C
:100B300086B006464FF0FF300091CDE9010100205C
:100B400015460C4604903246694604A8FFF7D4FFC8
:100B500002460498211825B108B1084600E0204655
:100B60002860049800280DD0002A02DD00988842F1
:100B700008D0081B0094CDE901043246694604A858
:100B8000FFF7BAFF06B070BDB90A0008D70A00081F
:100B9000690E00082DE9F04791460E46804604464E
:100BA000002514F8017B2FB100F05AF90068C05DF0
:100BB000C007F6D12B2F02D02D2F1ED0641E4A461F
:100BC0003146204600F059F926B13268A24201D1DF
:100BD000C6F800806A054FF0020418D50023D0EB58
:100BE000030563EB01025D1B934109DB0023D0EB9E
:100BF000030063EB0101BDE8F08745F48065DEE7A3
:100C000003F014FA046000204FF00041F3E7021EE5
:100C100071F10002EFDA03F009FA04604FF0FF30DF
:100C20004108E8E710B5141E73F1000408DA401C0F
:100C300041F1000192185B411A4301D120F00100FB
:100C400010BD2DE9F04D92469B4611B1B1FA81F2EB
:100C500002E0B0FA80F220329046FFF7FCFE044634
:100C60000F4640EA0A0041EA0B0153465A46084340
:100C700013D0114653EA010019D0C8F14002504682
:100C8000FFF7F8FE05460E46504659464246FFF726
:100C9000E2FE084305D0012004E020463946BDE8C5
:100CA000F08D0020054346EAE0762C4337430A984E
:100CB0006305E40AA0EB08000022FD0A44EA475459
:100CC0000A3002D500200146E9E701051019694103
:100CD000DDE9084500196941BDE8F04DA2E72DE9BD
:100CE000F04D81EA030404F0004B21F00045144666
:100CF0004FF0000A23F0004150EA050220D054EAE8
:100D000001021DD0C5F30A570246C5F31303C1F310
:100D10001300C1F30A5640F4801543F48013A7EB87
:100D20000608101BD64608F2FD3873EB050002D307
:100D300008F1010801E092185B41B8F1000F03DAF5
:100D400000200146BDE8F08D00204FF480110646DA
:100D500084460EE0171B73EB050705D3121B63EBEC
:100D6000050306434CEA010C49084FEA300092188B
:100D70005B4150EA0107EDD152EA030012D082EA4A
:100D8000040083EA0501084305D0101BAB4106D2DD
:100D90000122002306E000224FF0004302E06FF042
:100DA000010253101AEB06004CEB085110EB0A003D
:100DB00041EB0B01BDE8F04DFFF734BF0EB540F23B
:100DC000334202920022CDE900221346FFF739FF99
:100DD00003B000BDC1F30A52C1F3130140F2FF3367
:100DE00041F480119A4202DA00200146704740F235
:100DF00033439A42A2F2334202DC5242FFF73ABE38
:100E0000FFF729BE01F0004330B421F0004150EA61
:100E1000010206D00A0DA2F56072C1F31301002A87
:100E200002DC30BC00207047440F44EAC104C1001A
:100E3000E01830BC00EBC25000F080B8064C074D03
:100E400006E0E06840F0010394E80700984710349A
:100E5000AC42F6D3FFF79CF9709D0008909D000806
:100E600000487047D49C000810B50446FFF7F8FF0F
:100E70000068005D00F0010010BD2DE9F74F4FF054
:100E80000009009C1546CA4614F8010B302801D011
:100E9000ADB115E014F8010B4FF00109782803D02B
:100EA000582801D04DB10BE00DB1102D08D14FF0F5
:100EB0000009102514F8010B02E0082500E00A25BE
:100EC00000273E46B8464FEAE57B16E0A5FB072320
:100ED0000BFB073105FB080005FB0616010C571834
:100EE00046F100061FFA80F8381E4FF0010976F52A
:100EF000803000D3CA4614F8010B294600F055F89B
:100F00000028E3DA019838B1B9F1000F01D0641E6E
:100F100000E0009C01980460BAF1000F08D003F0D3
:100F200085F802210160C81E014603B0BDE8F08FBC
:100F3000310441EA174148EA0740F6E70029A8BF13
:100F40007047401C490008BF20F00100704710B4F2
:100F5000B0FA80FC00FA0CF050EA010404BF10BCA7
:100F6000704749B1CCF1200421FA04F411FA0CF1D4
:100F700018BF012121430843A3EB0C01CB1D4FEA0D
:100F800000614FEA102042BF002010BC704700EB08
:100F9000C35010440029A4BF10BC7047401C490036
:100FA00008BF20F0010010BC70473A2800D230384A
:100FB00020F02002412A01D3A2F13700884201D358
:100FC0004FF0FF30704700BFFEE7704701490860EF
:100FD00070470000143C014051B18200A2F1C042B0
:100FE000126842F001038200A2F1C042136009E0DE
:100FF0008200A2F1C0421268034B1A408300A3F1A1
:10100000C0431A6070470000FEFF0F00D0E90112D4
:101010001143C26811430269114342691143826955
:101020001143C2691143026A1143426A1143826A41
:101030001143C26A1143026B114302689200A2F18C
:10104000C0421160816808290BD101688900A1F1B3
:10105000C041096841F0400201688900A1F1C04126
:101060000A60416B0968426B526841EA0211426BA7
:10107000926841EA0221426B928941EA0241426B45
:10108000128A41EA0251426B127D41EA0261426BCF
:10109000926911430268521C9200A2F1C042116091
:1010A000C16AB1F5804F1BD1816B0968826B5268B0
:1010B00041EA0211826B926841EA0221826B128A34
:1010C00041EA0251826B127D41EA0261826B9269B0
:1010D000114302689200A2F1C042C2F8041107E075
:1010E0006FF0704201688900A1F1C041C1F804218C
:1010F0007047F0B50A4600210023002400BF3DE000
:10110000012505FA01F3156805EA03049C4234D170
:1011100005684F000326BE40B543056015794E00B3
:10112000B5400668354305601579012D02D0157963
:10113000022D16D185684F000326BE40B543856059
:1011400055794E00B540866835438560456801266F
:101150008E40B5434560456896798E40B6B23543BA
:101160004560C5684F000326BE40B543C560D579CC
:101170004E00B540C6683543C560491C1029BFD331
:10118000F0BDF0B5002300244D07ED0E02FA05F383
:10119000CE1000F1200555F826504E07F70E0F2609
:1011A000BE40B543CF1000F1200646F82750CE10C0
:1011B00000F1200555F8265045EA0304CE1000F151
:1011C000200545F82640F0BD0246002013690B407B
:1011D0000BB1012000E0002070470183704700BF81
:1011E000FEE700001CB50121112002F005F81C20CB
:1011F000009000208DF8040003208DF805000120E8
:101200008DF8070069460648FFF773FF012000903C
:1012100002208DF8070069460248FFF76AFF1CBDEF
:10122000001002400000024010B5044614B1012035
:101230002C4908702B480078002837D010212A4804
:10124000FFF7C2FF78B108212748FFF7BDFF50B173
:1012500004212548FFF7B8FF28B101212348FFF7F3
:10126000B3FF012822D10A2005F052FF00201D49BA
:10127000087010211C48FFF7A7FF08B9012010BD16
:1012800008211948FFF7A0FF08B90220F7E7042159
:101290001548FFF799FF08B90320F0E7012113482B
:1012A000FFF792FF01281BD10420E8E710210E4828
:1012B000FFF78AFF012813D108210B48FFF784FFAD
:1012C00001280DD104210848FFF77EFF012807D12E
:1012D00001210648FFF778FF10B901200149087085
:1012E0000020CCE70A00002000100240000002406D
:1012F00070B50446002617480588408845431548C0
:10130000808846F60401884216D112488079012867
:1013100012D100200F4988712A2048812B20888112
:101320000021084601F074FC01200A4988712B2035
:1013300048812A20888103E00021084601F068FCEA
:1013400001F02EFE002602E003480480761CAE4227
:10135000FAD370BD540100208000006C10B5044623
:1013600094B90020134988714FF4305008814FF42C
:10137000285048814FF42C5088814FF4F070088039
:101380004FF44870488011E001200A4988714FF4F9
:10139000305008814FF4285048814FF42C508881F8
:1013A0004FF4487008804FF4F0704880002001F03E
:1013B000D5FA10BD5401002070B505460E461446FE
:1013C0003146284601F024FC01F0EAFD0148048082
:1013D00070BD00008000006C2DE9F04706460F4606
:1013E00090469A46002445460320A0EB480944E075
:1013F0007A1B91B2321990B25246FFF7DDFF3A1BC9
:1014000091B2721990B25246FFF7D6FF3A1991B2D3
:10141000721990B25246FFF7CFFF7A1991B2321982
:1014200090B25246FFF7C8FF7A1991B2321B90B2C0
:101430005246FFF7C1FF3A1991B2721B90B2524661
:10144000FFF7BAFF7A1B91B2321B90B25246FFF7F8
:10145000B3FF3A1B91B2721B90B25246FFF7ACFF3A
:10146000641CB9F1000F03DAA000801D814404E080
:10147000601B80000A3081446D1EAC42B8DDBDE8BF
:10148000F087000070B504460D4616465B4880881C
:1014900049F24131884205D05848808845F21031E0
:1014A000884214D15549488901F06EFD201201F09F
:1014B0005FFDE0B201F05CFD5049888901F064FDF8
:1014C000281201F055FDE8B201F052FD8CE04B48C6
:1014D000808845F21051884220D14849488901F05E
:1014E00053FD201201F044FD44494989491C88B24A
:1014F00001F04AFDE0B201F03BFD4049888901F06E
:1015000043FD281201F034FD3C498989491C88B209
:1015100001F03AFDE8B201F02BFD65E03748808824
:1015200041F66311884228D13448807920B9334884
:101530000088401E001B84B23049488901F024FD18
:10154000201201F015FDE0B201F012FD201201F0B1
:101550000FFDE0B201F00CFD2849888901F014FD6F
:10156000281201F005FDE8B201F002FD281201F099
:10157000FFFCE8B201F0FCFC36E02048808846F62B
:10158000040188421DD11D488079012804D11B48DF
:101590000088401E001B84B21849488901F0F4FC01
:1015A000201201F0E5FCE0B201F0E2FC1349888969
:1015B00001F0EAFC281201F0DBFCE8B201F0D8FCF3
:1015C00012E00E488079012804D10C480088401EA2
:1015D000001B84B209494889214601F0EBFC074908
:1015E0008889294601F0E6FC0448008904490880FE
:1015F0004FF0D840A0F8806070BD0000540100207A
:101600007E00006C2DE9FC4F05460E4617469846B5
:10161000DDF82C90002001902748808846F60401D0
:10162000884229D124488079012825D1AB46354606
:1016300021480088C01B401E86B247461E480088CD
:10164000A0EB0B00401E1FFA80F800201A49887199
:101650002A2048812B20888143463A463146284635
:10166000CDF80090FFF7CEFF0120134988712B20A1
:1016700048812A2088811DE0781B401C80B201909F
:10168000344615E02146284601F0C2FA01F088FCF4
:101690004FF0000A07E04FF0D840A0F880900AF120
:1016A00001001FFA80FA01988245F4DB601C84B2C5
:1016B0004445E7DDBDE8FC8F5401002000B59FB034
:1016C00001217A2001F098FD0121084601F0A4FDD6
:1016D0004FF400401D9001208DF8780000208DF817
:1016E0007A0002208DF8790001208DF87B001DA979
:1016F000FE48FFF7FEFC4CF233701D9002208DF87F
:10170000780000208DF87A0003208DF87900012000
:101710008DF87B001DA9F648FFF7EBFC4FF68070B3
:101720001D9002208DF8780000208DF87A000320AB
:101730008DF8790001208DF87B001DA9ED48FFF799
:10174000D8FC4FF480501D9002208DF878000020C6
:101750008DF87A0003208DF8790001208DF87B0048
:101760001DA9E548FFF7C5FC4FF480501D900220ED
:101770008DF8780000208DF87A0003208DF879002C
:1017800001208DF87B001DA9DC48FFF7B2FC0C227C
:101790000021D748FFF7F5FC0C220121D448FFF7C0
:1017A000F0FC0C220421D248FFF7EBFC0C220521AF
:1017B000CF48FFF7E6FC0C220821CD48FFF7E1FCFB
:1017C0000C220921CA48FFF7DCFC0C220A21C84878
:1017D000FFF7D7FC0C220E21C548FFF7D2FC0C22E4
:1017E0000F21C348FFF7CDFC0C220721C148FFF7AA
:1017F000C8FC0C220821BF48FFF7C3FC0C220921BA
:10180000BC48FFF7BEFC0C220A21BA48FFF7B9FC1E
:101810000C220B21B748FFF7B4FC0C221146B54847
:10182000FFF7AFFC0C220D21B248FFF7AAFC0C22F7
:101830000E21B048FFF7A5FC0C220F21AD48FFF7A1
:10184000A0FC0C221146AC48FFF79BFC0C22114671
:10185000AA48FFF796FC0F200790002008903C2034
:10186000099000200A900B900C900D900920009098
:101870000020019008200290002003900490059021
:10188000069006200E9000200F90109010201190CE
:101890000020129014901390159016904FF48050E1
:1018A0001790002018904FF48040199000201A9053
:1018B00007A81B90CDF870D00EA8FFF7A7FB012159
:1018C0000620FFF789FB00204FF020418861C861A6
:1018D0008B4908604FF02040806940F480504FF001
:1018E000204188610846806940F48040886108464C
:1018F000806940F0100088610846C069C8610846E8
:10190000C06940F00F00C8610846C06940F47050DB
:10191000C8617B480068C1F81C010846D0F81C016A
:1019200040F00900C1F81C010846D0F81C0140F441
:101930000060C1F81C010846806940F00100886120
:10194000322005F0E5FB0121002001F033FB3220BD
:1019500005F0DEFB4FF45A4001F016FB00F0F4FFF7
:10196000684988804FF45B4001F00EFB00F0ECFF0B
:1019700064498880084680884FF6FF7101EA00209C
:10198000604988804FF45C4001F0FEFA00F0DCFF13
:101990005C49898808435B49888008468088B0F59F
:1019A000004F02D145F2105088805548006820F061
:1019B0000F004FF02041C1F81C010846D0F81C016F
:1019C00020F47060C1F81C010846D0F81C0140F0FA
:1019D0000300C1F81C010846D0F81C0140F4007057
:1019E000C1F81C014748818847A002F0D1FA55216F
:1019F0004FF4704001F0DEFAAA214FF2010001F02D
:101A0000D9FA52214FF2020001F0D4FA08214FF224
:101A1000030001F0CFFA01214FF2040001F0CAFAED
:101A20000D214FF4304001F0C5FA0D214BF20100B9
:101A300001F0C0FA0D214BF2020001F0BBFA342193
:101A40004FF4364001F0B6FA34214BF2016001F058
:101A5000B1FA34214BF2026001F0ACFA0D214FF4DF
:101A6000314001F0A7FA0D214BF2011001F0A2FA6A
:101A70000D214BF2021001F09DFA34214FF4374052
:101A800001F098FA34214BF2017001F093FA3421FD
:101A90004BF2027001F08EFA00214FF4324001F057
:101AA00089FA00214BF2012001F084FA00214BF267
:101AB000022001F07FFA24214FF4384001F07AFA35
:101AC00024214BF6010001F075FA24214BF60200A7
:101AD00001F070FA01214FF43F4001F06BFA0F2141
:101AE0004FF4334001F066FA0F2115E00004024084
:101AF000000C024000100240001402400018024096
:101B00001C0100A054010020204C43442049443AC9
:101B100025780D0A000000004BF2013001F04AFA6E
:101B20000F214BF2023001F045FA34214FF43940D5
:101B300001F040FA34214BF6011001F03BFA342158
:101B40004BF6021001F036FA08214FF4354001F04F
:101B500031FA08214BF2015001F02CFA08214BF226
:101B6000025001F027FA03214FF4424001F022FA1B
:101B700024214FF43A4001F01DFA24214BF60120B4
:101B800001F018FA24214BF6022001F013FA00218B
:101B90004FF43C4001F00EFA78214BF6014001F081
:101BA00009FA00214BF6024001F004FA00214FF43B
:101BB0003D4001F0FFF978214BF6015001F0FAF9B0
:101BC00000214BF6025001F0F5F900214FF43E40A0
:101BD00001F0F0F964214BF6016001F0EBF900210E
:101BE0004FF4514001F0E6F933214DF2011001F0BC
:101BF000E1F900214DF2021001F0DCF934214DF23F
:101C0000031001F0D7F900214DF2041001F0D2F9D0
:101C10003A214DF2051001F0CDF900214DF20610E8
:101C200001F0C8F94A214DF2071001F0C3F9002173
:101C30004DF2081001F0BEF95C214DF2091001F0DF
:101C4000B9F900214DF20A1001F0B4F981214DF2E9
:101C50000B1001F0AFF900214DF20C1001F0AAF9C0
:101C6000A6214DF20D1001F0A5F900214DF20E1044
:101C700001F0A0F9E5214DF20F1001F09BF90121CF
:101C80004DF2101001F096F913214DF2111001F0F0
:101C900091F901214DF2121001F08CF954214DF20D
:101CA000131001F087F901214DF2141001F082F9AF
:101CB00082214DF2151001F07DF901214DF216102F
:101CC00001F078F9CA214DF2171001F073F90221E1
:101CD0004DF2181001F06EF900214DF2191001F0CB
:101CE00069F902214DF21A1001F064F901214DF257
:101CF0001B1001F05FF902214DF21C1001F05AF99E
:101D000034214DF21D1001F055F902214DF21E1043
:101D100001F050F967214DF21F1001F04BF902213B
:101D20004DF2201001F046F984214DF2211001F00E
:101D300041F902214DF2221001F03CF9A4214DF2AB
:101D4000231001F037F902214DF2241001F032F98D
:101D5000B7214DF2251001F02DF902214DF2261088
:101D600001F028F9CF214DF2271001F023F90221CB
:101D70004DF2281001F01EF9DE214DF2291001F07C
:101D800019F902214DF22A1001F014F9F2214DF255
:101D90002B1001F00FF902214DF22C1001F00AF97D
:101DA000FE214DF22D1001F005F903214DF22E1008
:101DB00001F000F910214DF22F1001F0FBF8032182
:101DC0004DF2301001F0F6F833214DF2311001F0F0
:101DD000F1F803214DF2321001F0ECF86D214DF2D3
:101DE000331001F0E7F800214FF4524001F0E2F81F
:101DF00033214DF2012001F0DDF800214DF20220E7
:101E000001F0D8F834214DF2032001F0D3F800217D
:101E10004DF2042001F0CEF83A214DF2052001F0F8
:101E2000C9F800214DF2062001F0C4F84A214DF214
:101E3000072001F0BFF800214DF2082001F0BAF8A8
:101E40005C214DF2092001F0B5F800214DF20A2085
:101E500001F0B0F881214DF20B2001F0ABF8002128
:101E60004DF20C2001F0A6F8A6214DF20D2001F054
:101E7000A1F800214DF20E2001F09CF8E5214DF271
:101E80000F2001F097F801214DF2102001F092F897
:101E900013214DF2112001F08DF801214DF2122095
:101EA00001F088F854214DF2132001F083F801214C
:101EB0004DF2142001F07EF882214DF2152001F040
:101EC00079F801214DF2162001F074F8CA214DF283
:101ED000172001F06FF802214DF2182001F06AF886
:101EE00000214DF2192001F065F802214DF21A206F
:101EF00001F060F801214DF21B2001F05BF8022196
:101F00004DF21C2001F056F834214DF21D2001F055
:101F100051F802214DF21E2001F04CF867214DF2DC
:101F20001F2001F047F802214DF2202001F042F875
:101F300084214DF2212001F03DF802214DF22220B2
:101F400001F038F8A4214DF2232001F033F80221EA
:101F50004DF2242001F02EF8B7214DF2252001F09A
:101F600029F802214DF2262001F024F8CF214DF26C
:101F7000272001F01FF802214DF2282001F01AF865
:101F8000DE214DF2292001F015F802214DF22A2020
:101F900001F010F8F2214DF22B2001F00BF8022194
:101FA0004DF22C2001F006F8FE214DF22D2001F01B
:101FB00001F803214DF22E2000F0FCFF10214DF21C
:101FC0002F2000F0F7FF03214DF2302000F0F2FF48
:101FD00033214DF2312000F0EDFF03214DF232208C
:101FE00000F0E8FF6D214DF2332000F0E3FF002107
:101FF0004FF4534000F0DEFF33214DF2013000F08A
:10200000D9FF00214DF2023000F0D4FF34214DF20F
:10201000033000F0CFFF00214DF2043000F0CAFF82
:102020003A214DF2053000F0C5FF00214DF2063097
:1020300000F0C0FF4A214DF2073000F0BBFF002145
:102040004DF2083000F0B6FF5C214DF2093000F08F
:10205000B1FF00214DF20A3000F0ACFF81214DF2BA
:102060000B3000F0A7FF00214DF20C3000F0A2FF72
:10207000A6214DF20D3000F09DFF00214DF20E30F3
:1020800000F098FFE5214DF20F3000F093FF0121A1
:102090004DF2103000F08EFF13214DF2113000F0A0
:1020A00089FF01214DF2123000F084FF54214DF2DE
:1020B000133000F07FFF01214DF2143000F07AFF61
:1020C00082214DF2153000F075FF01214DF21630DE
:1020D00000F070FFCA214DF2173000F06BFF0221B3
:1020E0004DF2183000F066FF00214DF2193000F07B
:1020F00061FF02214DF21A3000F05CFF01214DF228
:102100001B3000F057FF02214DF21C3000F052FF4F
:1021100034214DF21D3000F04DFF02214DF21E30F2
:1021200000F048FF67214DF21F3000F043FF02210D
:102130004DF2203000F03EFF84214DF2213000F0BE
:1021400039FF02214DF2223000F034FFA4214DF27C
:10215000233000F02FFF02214DF2243000F02AFF3F
:10216000B7214DF2253000F025FF02214DF2263037
:1021700000F020FFCF214DF2273000F01BFF02219D
:102180004DF2283000F016FFDE214DF2293000F02C
:1021900011FF02214DF22A3000F00CFFF2214DF226
:1021A0002B3000F007FF02214DF22C3000F002FF2F
:1021B000FE214DF22D3000F0FDFE03214DF22E30B8
:1021C00000F0F8FE10214DF22F3000F0F3FE032155
:1021D0004DF2303000F0EEFE33214DF2313000F0A0
:1021E000E9FE03214DF2323000F0E4FE6D214DF2A4
:1021F000333000F0DFFE00214FF4544000F0DAFEEF
:1022000033214DF2014000F0D5FE00214DF2024095
:1022100000F0D0FE34214DF2034000F0CBFE00214F
:102220004DF2044000F0C6FE3A214DF2054000F0A8
:10223000C1FE00214DF2064000F0BCFE4A214DF2E5
:10224000074000F0B7FE00214DF2084000F0B2FE5A
:102250005C214DF2094000F0ADFE00214DF20A4034
:1022600000F0A8FE81214DF20B4000F0A3FE0021FA
:102270004DF20C4000F09EFEA6214DF20D4000F004
:1022800099FE00214DF20E4000F094FEE5214DF242
:102290000F4000F08FFE01214DF2104000F08AFE49
:1022A00013214DF2114000F085FE01214DF2124044
:1022B00000F080FE54214DF2134000F07BFE01211E
:1022C0004DF2144000F076FE82214DF2154000F0F0
:1022D00071FE01214DF2164000F06CFECA214DF254
:1022E000174000F067FE02214DF2184000F062FE38
:1022F00000214DF2194000F05DFE02214DF21A401E
:1023000000F058FE01214DF21B4000F053FE022167
:102310004DF21C4000F04EFE34214DF21D4000F005
:1023200049FE02214DF21E4000F044FE67214DF2AD
:102330001F4000F03FFE02214DF2204000F03AFE27
:1023400084214DF2214000F035FE02214DF2224061
:1023500000F030FEA4214DF2234000F02BFE0221BC
:102360004DF2244000F026FEB7214DF2254000F04A
:1023700021FE02214DF2264000F01CFECF214DF23D
:10238000274000F017FE02214DF2284000F012FE17
:10239000DE214DF2294000F00DFE02214DF22A40CF
:1023A00000F008FEF2214DF22B4000F003FE022166
:1023B0004DF22C4000F0FEFDFE214DF22D4000F0CC
:1023C000F9FD03214DF22E4000F0F4FD10214DF2F5
:1023D0002F4000F0EFFD03214DF2304000F0EAFD08
:1023E00033214DF2314000F0E5FD03214DF2324042
:1023F00000F0E0FD6D214DF2334000F0DBFD0021E7
:102400004FF4554000F0D6FD33214DF2015000F05D
:10241000D1FD00214DF2025000F0CCFD34214DF2EF
:10242000035000F0C7FD00214DF2045000F0C2FD42
:102430003A214DF2055000F0BDFD00214DF206504D
:1024400000F0B8FD4A214DF2075000F0B3FD002125
:102450004DF2085000F0AEFD5C214DF2095000F045
:10246000A9FD00214DF20A5000F0A4FD81214DF29A
:102470000B5000F09FFD00214DF20C5000F09AFD32
:10248000A6214DF20D5000F095FD00214DF20E50A9
:1024900000F090FDE5214DF20F5000F08BFD012181
:1024A0004DF2105000F086FD13214DF2115000F056
:1024B00081FD01214DF2125000F07CFD54214DF2BE
:1024C000135000F077FD01214DF2145000F072FD21
:1024D00082214DF2155000F06DFD01214DF2165094
:1024E00000F068FDCA214DF2175000F063FD022193
:1024F0004DF2185000F05EFD00214DF2195000F031
:1025000059FD02214DF21A5000F054FD01214DF207
:102510001B5000F04FFD02214DF21C5000F04AFD0F
:1025200034214DF21D5000F045FD02214DF21E50A8
:1025300000F040FD67214DF21F5000F03BFD0221ED
:102540004DF2205000F036FD84214DF2215000F074
:1025500031FD02214DF2225000F02CFDA4214DF25C
:10256000235000F027FD02214DF2245000F022FDFF
:10257000B7214DF2255000F01DFD02214DF22650ED
:1025800000F018FDCF214DF2275000F013FD02217D
:102590004DF2285000F00EFDDE214DF2295000F0E2
:1025A00009FD02214DF22A5000F004FDF2214DF206
:1025B0002B5000F0FFFC02214DF22C5000F0FAFCF1
:1025C000FE214DF22D5000F0F5FC03214DF22E506E
:1025D00000F0F0FC10214DF22F5000F0EBFC032135
:1025E0004DF2305000F0E6FC33214DF2315000F056
:1025F000E1FC03214DF2325000F0DCFC6D214DF284
:10260000335000F0D7FC00214FF4564000F0D2FCCC
:1026100033214DF2016000F0CDFC00214DF202604B
:1026200000F0C8FC34214DF2036000F0C3FC00212F
:102630004DF2046000F0BEFC3A214DF2056000F05E
:10264000B9FC00214DF2066000F0B4FC4A214DF2C5
:10265000076000F0AFFC00214DF2086000F0AAFC1A
:102660005C214DF2096000F0A5FC00214DF20A60EA
:1026700000F0A0FC81214DF20B6000F09BFC0021DA
:102680004DF20C6000F096FCA6214DF20D6000F0BA
:1026900091FC00214DF20E6000F08CFCE5214DF222
:1026A0000F6000F087FC01214DF2106000F082FC09
:1026B00013214DF2116000F07DFC01214DF21260FA
:1026C00000F078FC54214DF2136000F073FC0121FE
:1026D0004DF2146000F06EFC82214DF2156000F0A6
:1026E00069FC01214DF2166000F064FCCA214DF234
:1026F000176000F05FFC02214DF2186000F05AFCF8
:1027000000214DF2196000F055FC02214DF21A60D3
:1027100000F050FC01214DF21B6000F04BFC022147
:102720004DF21C6000F046FC34214DF21D6000F0BB
:1027300041FC02214DF21E6000F03CFC67214DF28D
:102740001F6000F037FC02214DF2206000F032FCE7
:1027500084214DF2216000F02DFC02214DF2226017
:1027600000F028FCA4214DF2236000F023FC02219C
:102770004DF2246000F01EFCB7214DF2256000F000
:1027800019FC02214DF2266000F014FCCF214DF21D
:10279000276000F00FFC02214DF2286000F00AFCD7
:1027A000DE214DF2296000F005FC02214DF22A6085
:1027B00000F000FCF2214DF22B6000F0FBFB022147
:1027C0004DF22C6000F0F6FBFE214DF22D6000F082
:1027D000F1FB03214DF22E6000F0ECFB10214DF2D5
:1027E0002F6000F0E7FB03214DF2306000F0E2FBC8
:1027F00033214DF2316000F0DDFB03214DF23260F8
:1028000000F0D8FB6D214DF2336000F0D3FB552171
:102810004FF4704000F0CEFBAA214FF2010000F00F
:10282000C9FB52214FF2020000F0C4FB08214FF215
:10283000030000F0BFFB00214FF2040000F0BAFBE0
:10284000CC214FF4314000F0B5FB00214BF20110D8
:1028500000F0B0FB05214FF4364000F0ABFB7021D7
:102860004FF4374000F0A6FB70214BF2017000F0EE
:10287000A1FB01214FF4384000F09CFB03214BF6F3
:10288000010000F097FB03214BF6020000F092FBE1
:1028900003214BF6030000F08DFB02214FF43C4076
:1028A00000F088FB00214BF6014000F083FB002183
:1028B0004BF6024000F07EFBD0214FF4494000F07F
:1028C00079FB02214CF6011000F074FB50214CF60C
:1028D000021000F06FFB50214CF6031000F06AFB71
:1028E00050214CF6041000F065FB00214FF45450C9
:1028F00000F060FB55214FF4685000F05BFB4FF493
:10290000885000F041FB782004F01EFC4FF4245066
:1029100000F03AFB0020FEF721FD0120034908608A
:102920004FF6FF70FEF7E4FC1FB000BDBC824042D2
:1029300010B50246012000E050430B1EA1F1010436
:10294000E1B2F9D110BD000008B50348008800903D
:10295000BDF8000008BD00008000006CF0B5054621
:1029600000240027A948807901280BD1A748808836
:1029700046F60401884205D0A448808841F66311D8
:10298000884208D1A1488079F0B9A048808841F6F2
:102990006311884218D1082D15D2DFE805F004062E
:1029A000080A0C0E101206250DE007250BE0042581
:1029B00009E0052507E0012505E0002503E00325E2
:1029C00001E0022500BF00BF9048808849F24131F4
:1029D000884217D08D48808846F60401884211D07D
:1029E0008A48808845F2103188420BD08748808819
:1029F00045F21051884205D08448808841F6631121
:102A000088427DD1082D1CD2DFE805F00406090CB0
:102A10000F12151800BF14E044F0800411E044F0D8
:102A200040040EE044F0C0040BE044F0200408E051
:102A300044F0600405E044F0A00402E044F0E00447
:102A400000BF00BF7148808845F21051884202D112
:102A50004FF4585700E036272146384600F0AAFACE
:102A60006A48808841F6631188421DD004F0200036
:102A700068B16648008865494988884214DA634825
:102A80000688408861490880084646800CE05F4817
:102A900000885E494988884206DD5C48068840888F
:102AA0005A490880084646805848808845F21051A7
:102AB000884254D15549488900F066FA002000F058
:102AC00057FA52494989491C88B200F05DFA002042
:102AD00000F04EFA4D494989891C88B200F054FA39
:102AE0004A490988491EC1F30F2000F041FA4749BD
:102AF0004989C91C88B200F047FA4449097800E0C6
:102B00005CE0491EC8B200F033FA4049888900F001
:102B10003BFA002000F02CFA3C498989491C88B214
:102B200000F032FA002000F023FA38498989891C24
:102B300088B200F029FA35494988491EC1F30F20AF
:102B400000F016FA31498989C91C88B200F01CFAD4
:102B50002E498978491EC8B200F00AFA55E02B497F
:102B6000488900F011FA002000F002FA002000F07D
:102B7000FFF926490988491EC1F30F2000F0F8F932
:102B800022490978491EC8B200F0F2F91F49888924
:102B900000F0FAF9002000F0EBF9002000F0E8F96D
:102BA0001A494988491EC1F30F2000F0E1F917497D
:102BB0008978491EC8B200F0DBF926E0082D1CD246
:102BC000DFE805F004070A0D0F12151844F0300471
:102BD00013E044F0100410E044F020040DE000BFC6
:102BE0000BE044F0380408E044F0280405E044F029
:102BF000180402E044F0080400BF00BF032744F4B7
:102C000080542146384600F0D5F9F0BD540100202B
:102C100030B504460D466748808849F24131884204
:102C200005D06448808845F21031884214D161494A
:102C3000488900F0A9F9201200F09AF9E0B200F0FA
:102C400097F95C49888900F09FF9281200F090F903
:102C5000E8B200F08DF9ABE05648808846F60401F2
:102C600088421DD153488079012804D151480088F9
:102C7000401E001B84B24F49488900F085F920129C
:102C800000F076F9E0B200F073F94A49888900F063
:102C90007BF9281200F06CF9E8B200F069F987E0DE
:102CA0004448808841F66311884247D14148807981
:102CB000A8B940480088401E001B84B23D4948899D
:102CC00000F062F9002000F053F9002000F050F904
:102CD000201200F04DF9E0B200F04AF916E0354953
:102CE000488900F051F9201200F042F9E0B200F0FA
:102CF0003FF930490988491EC1F30F2000F038F927
:102D00002C490978491EC8B200F032F9294988894E
:102D100000F03AF9281200F02BF9E8B200F028F997
:102D200024494988491EC1F30F2000F021F92149A7
:102D30008978491EC8B200F01BF939E01D48808827
:102D400045F21051884220D11A49488900F01CF9F7
:102D5000201200F00DF917494989491C88B200F08A
:102D600013F9E0B200F004F91249888900F00CF977
:102D7000281200F0FDF80F498989491C88B200F03B
:102D800003F9E8B200F0F4F812E00A48807901286B
:102D900004D108480088401E001B84B205494889B8
:102DA000214600F007F903498889294600F002F915
:102DB00030BD0000540100202DE9F84F80460E463A
:102DC00017461C46B3462046E31704EB5373DB104B
:102DD00021464FEAE47C04EB5C7C4FEAEC0CA4EB6C
:102DE000CC0CBCF1000F02D04FF0010C01E04FF011
:102DF000000C6344224604EBD27C4FEA6C0C03FBCC
:102E00000CF3DBB20093A7F12000C7B2002554E019
:102E10000C2C07D107EB47002A4901EB800010F882
:102E2000059013E0102C05D1274800EB071010F88F
:102E300005900BE0182C07D107EBC700234901EBE5
:102E4000800010F8059001E0BDE8F88F4FF0000A0F
:102E50002DE009F0800028B1314640460B9AFEF77C
:102E600011FB06E00A9820B9314640460C9AFEF75D
:102E700009FB4FEA49604FEA1069701C86B214489A
:102E80004088B04200DCDFE7A6EB0B00A0420AD18D
:102E90005E4608F101001FFA80F80D4800884045A1
:102EA00000DCD1E706E00AF1010000F0FF0ABAF108
:102EB000080FCEDB00BF681CC5B200988542A7DBB7
:102EC00000BFC1E73C830008B0870008A08D000860
:102ED000540100202DE9FF4F85B0074691461E465C
:102EE000DDE913AB129D0020049000243AE0301B72
:102EF000401EC1B20A20FFF71BFDB9FBF0F00A210A
:102F0000B0FBF1F201FB12080498B8B9701EA042A0
:102F100014DDB8F1000F0FD1002005EBD571491079
:102F200001FB04718DE8010C039588B22B46202229
:102F30000699FFF741FF13E001200490002005EB04
:102F4000D571491001FB04718DE8010C039588B21D
:102F500008F13001CAB22B460699FFF72DFF00BFDA
:102F6000601CC4B2B442C2DB09B0BDE8F08F0000FF
:102F700001B5BDF800000090BDF8000001490880CF
:102F800008BD00008000006C01B5BDF80000009095
:102F9000BDF800000149088008BD00007E00006CFB
:102FA000024800890249088070470000540100204F
:102FB0007E00006C034A10804FF0D842A2F88010C7
:102FC000704700007E00006C1CB50121202000F03D
:102FD00013F94FF4C060009001208DF80400002028
:102FE0008DF8060003208DF8050001208DF80700FC
:102FF00069460448FEF77DF84FF4C0610148FEF7CA
:10300000ECF81CBD0014024000BFFEE73EB541F6DF
:10301000FF740121080700F00FF9012000F0E4F827
:10302000002000F00DFB45F25001884231D0012014
:1030300000F0D6F904E0601C84B20A2004F068F8BD
:10304000412000F0ADF90028F5D00CB901203EBDBB
:103050004FF4807000F0E0F9012000F0D7F97F20F4
:103060000190FF20029000200090684600F0B6FA20
:10307000002338223B21172000F0D0FB012305223A
:1030800011460E2000F0B8FB45F25001002000F080
:1030900021FC0020DBE7000030B53C24B0FBF4F558
:1030A00004FB15040C603C24B0FBF4F0B0FBF4F519
:1030B00004FB15044C603C24B0FBF4F048F6F80423
:1030C000B0FBF4F340F2B27404EB83044C6148F6B5
:1030D000F804B0FBF4F504FB150000BF42F23822FF
:1030E0000C7D04F0030404B91832904200D204E0CD
:1030F0004C69641C4C61801AF0E700BF1824B0FBD7
:10310000F4F504FB15048C601824B0FBF4F0401CAB
:103110000C7D04F0030454B93C2801D9401E06E09C
:103120003C2804D101240C611D24CC6030BD002456
:103130000C6106E0074D0C692C5D001B0C69641CDA
:103140000C61044D0C692C5D8442F3D3C86000BF50
:10315000ECE70000209B00087047000070B50021DC
:1031600000230F22C4781CB3174C246804F4E064D5
:10317000C4F5E064C4F30721C1F10404E3B20A41D9
:1031800044789C40E1B28478144021430C07210E1E
:103190000E4C05786155047804F01F050124AC40FD
:1031A00005786D11AD0005F1E025C5F8004109E095
:1031B000047804F01F050124AC40054D0678761113
:1031C00045F8264070BD00000CED00E000E400E092
:1031D00080E100E002490143024A116070470000AB
:1031E0000000FA050CED00E001490862704700009C
:1031F00000000E427047000029B1064A12680243DF
:10320000044B1A6004E0034A12688243014B1A60BF
:10321000704700003038024029B1064A1268024364
:10322000044B1A6004E0034A12688243014B1A609F
:10323000704700003838024029B1064A126802433C
:10324000044B1A6004E0034A12688243014B1A607F
:10325000704700004038024029B1064A1268024314
:10326000044B1A6004E0034A12688243014B1A605F
:10327000704700002038024029B1064A1268024314
:10328000044B1A6004E0034A12688243014B1A603F
:10329000704700004438024029B1064A12680243D0
:1032A000044B1A6004E0034A12688243014B1A601F
:1032B0007047000024380240F0B5002100220024AD
:1032C000022500260223324F3F6807F00C0121B18E
:1032D000042905D0082937D105E02E4F076036E0D4
:1032E0002D4F076033E02A4F3F1F3F68C7F38056DA
:1032F000274F3F1F3F6807F03F036EB1264FB7FBD4
:10330000F3F7DFF88CC0ACF1040CDCF800C0CCF3B0
:10331000881C07FB0CF40CE01E4FB7FBF3F7DFF83B
:1033200070C0ACF1040CDCF800C0CCF3881C07FBC7
:103330000CF4174F3F1F3F68C7F301477F1C7D0008
:10334000B4FBF5F7076002E0124F076000BF00BF53
:103350000F4F3F6807F0F0010909104F7A5C0768CA
:10336000D74047600A4F3F6807F4E051890A0B4F86
:103370007A5C4768D7408760054F3F6807F4604133
:10338000490B064F7A5C4768D740C760F0BD000024
:10339000083802400024F40000127A0015000020D2
:1033A00010B501460022002300204A11012A02D153
:1033B0000A4C236808E0022A03D1084C70342368C1
:1033C00002E0064C7434236801F01F02012494408B
:1033D0001C400CB1012000E0002010BD003802406C
:1033E0000021094A11701170012802D0042808D167
:1033F00003E00121044A117004E00521024A117022
:1034000000E000BF00BF704770380240014908600B
:10341000704700003C0E4742002100F44072B2F5B4
:10342000407F08D1094A116821F4F811084A024086
:103430001143064A1160054A68321268C0F30B0353
:103440001A43024B68331A60704700000838024084
:10345000FFFCFF0F10B54FF4807000F06DF80128ED
:1034600005D1000200F028F803A000F091FD4FF410
:103470000030FDF7ABFD10BD414C41524D204121C4
:103480000D0A0000014600BF080900EB8000420061
:1034900001F00F001044C0B270470146002204E062
:1034A000501CC2B2A1F10A00C1B20A29F8DA100711
:1034B00041EA10607047000081B241F08001044A87
:1034C000126802F0800262EA0101014A116070474D
:1034D0000C28004008B50022009200200021104A6C
:1034E000126802F04002CAB9421E0D4B1A6000BFBA
:1034F0000B4A126802F04001009A521C0092009A96
:10350000B2F5803F01D00029F2D0054A126802F0DE
:1035100040020AB1012002E0002000E0012008BDC5
:103520000C2800400348006820F080000149086032
:10353000704700000C28004010B501460020002212
:10354000054B1B68054C03EA040202EA01030BB1B8
:10355000012000E0002010BD0C2800407F3F01004A
:1035600070B506460C4600250F4800680F4900EA72
:103570000105C5F305402070C5F30620607005F015
:103580007F00A07005F48000000CE0705EB9207828
:10359000FFF778FF20706078FFF774FF6070A07805
:1035A000FFF770FFA07070BD002800407F7F7F0094
:1035B000F8B507460C4615461E4669460020FFF73B
:1035C000CFFF9DF8000038709DF8010020709DF835
:1035D000020028709DF803003070F8BD30B5044635
:1035E0000025CA201549086053200860FFF772FFC4
:1035F00000B91DE011481C38006820F040000F4958
:103600001C39086008460068216808430B491C39CA
:1036100008600A491439A068086008460068A18853
:1036200040EA0140054914390860FFF77BFF012596
:10363000FF2002490860284630BD000024280040D1
:1036400008B501460020009004480090009800EB67
:10365000810000900098006808BD000050280040DC
:103660002DE9F04105460C46002600274DB960784B
:1036700000F01000102804D1607820F010000A300B
:10368000607005B908E06078FFF7FCFE0646A07898
:10369000FFF7F8FE064600BF55B1E07800046178F8
:1036A00040EA0120A1780843217840EA413611E040
:1036B000E078FFF7F2FE4FEA00486078FFF7EDFE92
:1036C00048EA0028A078FFF7E8FE48EA00082078DA
:1036D00048EA4036CA201249086053200860FFF7C4
:1036E000F9FE08B9002714E00E4830400C49203993
:1036F0000860FFF717FF0A481C38006800F0200038
:1037000030B900F0B7F808B9002702E0012700E05F
:103710000127FF20024908603846BDE8F08100001B
:10372000242800403FFFFF002DE9F04105460C46EC
:10373000002600274DB92E48006800F0400000B177
:1037400002E00020E07000BF0DE02948006800F0B2
:10375000400020B12078FFF795FE064602E00020E9
:10376000E07000BF00BF55B120780004617840EAE6
:103770000120A1780843E17840EA014611E0207871
:10378000FFF78BFE4FEA00486078FFF786FE48EAB5
:103790000028A078FFF781FE48EA0008E07848EAB0
:1037A0000046CA2012491C31086053200860FFF708
:1037B00091FE08B9002713E00E4830400C49083943
:1037C0000860FFF7AFFE0A48006800F0200030B93B
:1037D00000F050F808B9002702E0012700E00127B7
:1037E000FF2003491C3108603846BDE8F081000025
:1037F000082800407F7F7F00F8B504460D46174635
:103800001E468DF802708DF801508DF800608DF81D
:10381000034069460020FFF723FFF8BDF8B50446D2
:103820000D4617461E468DF800408DF801508DF864
:1038300002708DF8036069460020FFF775FFF8BD40
:1038400010B54FF48060FFF777FE01280AD180029F
:10385000FFF732FE0648006808B9012000E00020AA
:10386000034908604FF48000FDF7B0FB10BD000075
:10387000A882424208B50022009200200021CA22FC
:10388000134B1A6053221A60114A183A126822F038
:10389000A0020F4B183B1A6000BF0D4A183A12687D
:1038A00002F02001009A521C0092009AB2F5003FEB
:1038B00001D00029F1D0064A183A126802F020021D
:1038C0000AB1012000E00020FF22014B1A6008BD70
:1038D0002428004008B500220092044A0092009A71
:1038E00002EB80020092009A116008BD502800404F
:1038F000704700000CB5002001900090344800682B
:1039000040F480303249086000BF3148006800F45C
:10391000003000900198401C0190009818B901985F
:10392000B0F5A04FF1D12A48006800F4003010B182
:103930000120009001E0002000900098012846D16D
:1039400023484030006840F08050214940310860F1
:103950002048006840F440401E4908601C48083078
:1039600000681B49083108600846006840F40040C0
:1039700008600846006840F4A05008601648091F17
:103980000860081F006840F08070091F086000BFD1
:103990000F48006800F000700028F9D040F2057070
:1039A0000E4908600A480830006820F00300084902
:1039B000083108600846006840F00200086000BF57
:1039C00003480830006800F00C000828F8D10CBD4E
:1039D000003802400070004008544007003C02409C
:1039E000042808D14FF0E021096941F004014FF0AB
:1039F000E022116107E04FF0E021096921F00401A4
:103A00004FF0E022116170477047000010B5154873
:103A1000006840F47000134908601348006840F0E3
:103A200001001149086000200F49083108600E4864
:103A300000680E4908400C4908600D48091D0860DF
:103A4000081F006820F48020091F08600020064934
:103A50000C310860FFF74EFF4FF0006001498039DC
:103A6000086010BD88ED00E000380240FFFFF6FE60
:103A70001030002410B50121094800F04EF868B15B
:103A80000848008840F400400649088001210448A5
:103A900000F034F80021024800F033F810BD0000B7
:103AA000001400400C0000207FB505460C460121A3
:103AB0002020FFF7C1FB0195ADF800400020ADF8D4
:103AC0000800ADF8020069460B4800F043F80122F7
:103AD0001146094800F032F837208DF80C0000201C
:103AE0008DF80D0001208DF80E008DF80F0003A851
:103AF000FFF734FB7FBD000000140040CA43028280
:103B0000704721B1028842F00102028004E002887D
:103B10004FF6FE731A400280704730B5024600200F
:103B200000230024158A05EA0103958905EA0104AA
:103B300013B10CB1012000E0002030BD1AB183891F
:103B40000B43838102E083898B4383817047416209
:103B50007047000000220288184B98420ED0184B84
:103B600098420BD0B0F1804F08D0164B984205D048
:103B7000154B984202D0154B984204D14FF68F73E3
:103B80001A404B881A43124B984207D0114B984267
:103B900004D04FF6FF431A400B891A4302804B684A
:103BA000C3620B880385054B984202D0044B9842B0
:103BB00001D18B7A03860123838270470000014084
:103BC000000401400004004000080040000C0040D8
:103BD000001000400014004010B540F225511D486F
:103BE00000F011F910B31B4800F0C6F9C4B21A482E
:103BF000008800F40040C8B91748008800F48040ED
:103C000060B10A2C03D000201349088020E012483C
:103C1000008840F400401049088019E00D2C06D1BE
:103C20000D48008840F480400B49088010E00A48A5
:103C30000088C0F30D0009490C5407480088401C57
:103C40000549088008460088C72801DD0020088053
:103C500010BD000000100140080000208C00002072
:103C600010B540F22551164800F0CDF800B31448C5
:103C700000F082F9C4B21348008800F40040B8B9DB
:103C800010480088B0F5C87F13DA00210E48FFF70E
:103C90005EFF0C48008818B901210B48FFF731FF7F
:103CA000084801880088401C064A10800748445490
:103CB00005E00448008840F400400249088010BD37
:103CC000004800400C00002000140040F8020020D2
:103CD00001F40072B2F5007F00D100BFCA43028038
:103CE000704721B1828942F40052828104E08289C6
:103CF0004DF6FF731A4082817047000010B50446EC
:103D00003248844208D101211020FFF7C5FA002172
:103D10001020FFF7C1FA57E02D48844209D1012154
:103D20004804FFF799FA00214FF40030FFF794FAA6
:103D30004AE02848844209D101218804FFF78CFA1F
:103D400000214FF48020FFF787FA3DE022488442AB
:103D500009D10121C804FFF77FFA00214FF40020A8
:103D6000FFF77AFA30E01D48844209D101210805A5
:103D7000FFF772FA00214FF48010FFF76DFA23E08D
:103D80001748844208D101212020FFF785FA00213D
:103D90002020FFF781FA17E01248844209D101215F
:103DA0008807FFF759FA00214FF08040FFF754FAD7
:103DB0000AE00D48844207D101214005FFF74CFA83
:103DC00000216005FFF748FA10BD00000010014017
:103DD0000044004000480040004C004000500040BB
:103DE0000014014000780040007C004002460020A2
:103DF000B1F5007F00D100BF13880B400BB101204B
:103E000000E00020704770B5024600240023002522
:103E1000002040F66A16B14200D100BFC1F342153E
:103E200001F01F03012606FA03F3012D02D1968942
:103E3000334006E0022D02D1168A334001E0968A13
:103E400033400C12012606FA04F41688344013B1EC
:103E50000CB1012000E0002070BDF0B50346002445
:103E600000260025002040F66A17B94200D100BFA5
:103E70001846C1F3421401F01F06012707FA06F5A0
:103E8000012C01D10C3004E0022C01D1103000E0F3
:103E900014301AB107682F43076002E00768AF4388
:103EA0000760F0BD2DE9FF4705460E460024A146F8
:103EB00000BFA046B08900B100BF2C8A24F4405452
:103EC000F08804432C82AC8941F20C608443B088B2
:103ED00031890843718908430443AC81AC8A24F4D6
:103EE0004074B0890443AC826846FFF7E5F9204886
:103EF000854202D01F48854202D1DDF80C9001E0D6
:103F0000DDF80890A88900F4004040B109EBC90031
:103F100000EB091031684900B0FBF1F707E009EB4D
:103F2000C90000EB091031688900B0FBF1F764208B
:103F3000B7FBF0F004012009642101FB1078A88987
:103F400000F4004040B1322000EBC800B0FBF1F0BB
:103F500000F00700044308E0322000EB0810642161
:103F6000B0FBF1F000F00F0004432C81BDE8FF87A7
:103F7000001001400014014001468888C0F3080089
:103F80007047C1F308028280704700BFFEE700005F
:103F90000FB4054B10B503A9044A029800F070FE57
:103FA00010BC5DF814FB0000F9710008040000204B
:103FB0000FB4084B10B504A902AA039800F060FEE4
:103FC000044602A9002001F0DEF9204610BC5DF88D
:103FD00014FB00008753000837B514460846064B0B
:103FE0006A46214600F04CFE04466946002001F076
:103FF000CAF920463EBD00008753000803B401986B
:104000004100009850EAC12018BF04204A0D18BF93
:1040100040F0010040F2FF72B2EB515F08BF40F088
:104020000200012808BF052002B070470048704711
:104030008800002030B528B1144C031F00202168EF
:104040000A4605E0084630BD9A4203D81046526839
:10405000002AF9D1002800D041680BD00468A3EBF6
:104060000005A54204D11B681C440346046002E01D
:10407000436000E023603AB11C68D51AA54203D121
:1040800015682C441C6052685A6030BD80000020C6
:1040900010B52F499FED2C1B2DED020B84B0059818
:1040A00020F000408842D8BF9DED040B2DDD29494A
:1040B000884209D1049840B94FF0010000F010FD8A
:1040C00000F0DEFC06B010BD05DB9DED040B00F03A
:1040D000CBFC06B010BD68469DED040B00F0B4F8B3
:1040E00010F0030004BF9DED021B9DED000B0CD0F2
:1040F00001280ED09DED021B9DED000B022817D06C
:10410000012000F0F1FB06B010BD00F0B9FA06B0D6
:1041100010BD9DED021B9DED000B012000F0E4FBA6
:1041200051EC100B81F0004106B041EC100B10BDBA
:1041300000F0A6FA51EC100B81F0004106B041EC02
:10414000100B10BD00000000000000000000000087
:10415000FB21E93F0000F07F10B52F499FED2C1B9C
:104160002DED020B84B0059820F000408842DCBFA2
:1041700000209DED040B32DD2849884209D10498C6
:1041800040B94FF0010000F0ABFC00F079FC06B044
:1041900010BD05DB9DED040B00F066FC06B010BD04
:1041A00068469DED040B00F04FF810F0030011D0AD
:1041B000012818D09DED021B9DED000B02281AD09E
:1041C00000F05EFA51EC100B81F0004106B041ECBA
:1041D000100B10BD9DED021B9DED000B012000F0AA
:1041E00083FB06B010BD9DED021B9DED000B00F0A2
:1041F00047FA06B010BD012000F076FB51EC100B21
:1042000081F0004106B041EC100B10BD0000000031
:104210000000000000000000FB21E93F0000F07FEB
:1042200000B583B09FED060B0A4601468DED000BED
:104230006846FCF77CFC9DED000B03B000BD000060
:1042400000000000000000002DE9F14F04462DEDB4
:10425000020B2DED088B8AB09FEDE70B80ED020B72
:10426000139EE74826F0004585420ADC9DED120BBF
:10427000002084ED000B0AB0BDEC088B03B0BDE854
:10428000F08FE0489FEDE0AB9FEDE1BBA84247DD3A
:10429000E14F9FEDE39B9FEDE48B9DED120B53EC03
:1042A0001A2B51EC100B002E1CDDFCF77BFA41ECB5
:1042B000100BBD4208D053EC1B2B51EC100BFCF73C
:1042C00071FAC4E900010BE053EC192B51EC100B0F
:1042D000FCF768FA53EC182BFCF764FAC4E9000108
:1042E0000120C8E7FCF7BDF941EC100BBD4208D036
:1042F00053EC1B2B51EC100BFCF7B3F9C4E9000194
:104300000BE053EC192B51EC100BFCF7AAF953EC12
:10431000182BFCF7A6F9C4E900014FF0FF30AAE71B
:10432000C348A84279DB9DED120B51EC100B02F053
:1043300057FF41EC180B9FEDC00B53EC102BFCF713
:1043400037FA9FEDBF1B53EC112BFCF78AF9FCF7F2
:10435000BFFA0746FCF79EFA41EC190B53EC1A2BF7
:10436000FCF726FA53EC182BFCF71FFA41EC180B5C
:1043700053EC1B2B51EC190BFCF71AFADFF8C8A20F
:1043800041EC100B4FEA15580125FA4453EC102B61
:1043900051EC180BFCF706FA032DC4E900013DD0DF
:1043A000C1F30A5005EB4511A8EB00001139814219
:1043B00034DA0AEB051BB0EE48AA9BED000BF0EED9
:1043C00068AA53EC102B51EC190BFCF7F1F941ECF6
:1043D0001B0B51EC1A0B53EC1B2BFCF7E3F941ECD4
:1043E000180B51EC1A0B53EC182BFCF7DBF953ECC0
:1043F0001B2BFCF7D7F99BED020B41EC1A0B53EC8E
:10440000102B51EC190BFCF7D3F953EC1A2BFCF7DA
:10441000C9F941EC100B6D1CB8E70EE0002EA8BFE7
:104420003846BFF628AF94ED000B51EC100B81F02D
:104430000041C4E9000178421DE7C6F3130040F4CF
:10444000801EC6F30A50A0F2F530471100F01F0598
:10445000C5F12000DDF848B00890002006900790D4
:104460000520EC467949002D07EB0002794408BF8E
:1044700051F8221009D051F8223001EB8201AB40F3
:104480004A68089922FA01F11943A1FB0E26A1FB03
:104490000B131A449A4234BF0123002303EB06088E
:1044A0000CEB8003D3E901A60E448E4234BF0121F8
:1044B000002192448A4411B1924502D903E0924509
:1044C00001D2012100E00021C3E901A641444CF8DA
:1044D0002010011EA0F10100C4DC029800F1005080
:1044E000850F0298DDE903678000DDF81480FCF792
:1044F000D1F941EC1A0B3046FCF7DDF99FED541B66
:1045000053EC112BFCF754F941EC1B0B3846FCF72C
:10451000D2F99FED511B53EC112BFCF749F941ECFB
:10452000180B4046FCF7C7F99FED4D1B53EC112BC0
:10453000FCF73EF941EC190B51EC180B53EC192B1D
:10454000FCF78FF853EC1B2BFCF78BF853EC1A2B72
:10455000FCF787F8CDE90801002008909DED080BD5
:1045600053EC1A2B51EC100BFCF71CF953EC1B2BE2
:10457000FCF718F953EC182BFCF714F953EC192B32
:10458000FCF713F99FED381B53EC112BFCF710F9D6
:104590009FED370B41EC180B53EC102B9DED080BE6
:1045A00051EC100BFCF704F953EC182BFCF759F8FD
:1045B0009FED310B41EC180B53EC102B9DED080BCC
:1045C00051EC100BFCF7F4F853EC182BFCF749F8FE
:1045D00041EC100B139810F0004F06D06D4251ECD7
:1045E000100B81F0004141EC100B284684ED000BCC
:1045F00041E6000000000000000000000000000094
:10460000FB21E93F7CD9024000004054FB21F93FE7
:104610003163621A61B4D03DFB21F93F0000000014
:104620000000601A61B4D03D7370032E8A19A33B59
:10463000FB2139410000000083C8C96D305FE43FB1
:10464000000000000000E03FD257000020570000AB
:10465000000000000000103E000000000000103CC0
:10466000000000000000103A182D4454FB21F93DD1
:104670003326A611460B113C00000054FB21F93DE6
:1046800010B52DED040B2DED088B82B0B0EE419AE4
:10469000F0EE619A0B9820F000449FED4BABB4F123
:1046A000795F11DA9DED0A0B51EC100BFCF710F954
:1046B000002801BFB0EE4A0AF0EE6A0A02B0BDEC73
:1046C000088B04BF04B010BD9DED0A0B53EC102BFA
:1046D00051EC100BFCF76CF841EC180B3C48062130
:1046E000B0EE480AF0EE680A784400F081F853EC26
:1046F000182B51EC100BFCF75BF89DED0A0B41EC0D
:104700001B0B53EC192B51EC100BFCF751F841EC3F
:10471000190B53EC1B2B51EC180BFCF749F853EC1D
:10472000192BFCF73FF89FED2C0B41EC190B53ECC8
:10473000102B51EC180BFCF73BF841EC100B284800
:10474000844210DA53EC192B51EC100BFCF72AF8C9
:1047500053EC1A2BFCF729F841EC100B02B0BDEC1E
:10476000088B04B010BD1F48A042BCBF9FED1E1BAC
:104770008DED001B06DBA4F50010019000200090D9
:104780009DED001B51EC100B53EC112BFCF70AF8BC
:104790009DED000B41EC180B53EC102B51EC1A0B58
:1047A000FCF700F841EC1A0B53EC192B51EC180BE9
:1047B000FBF7F8FF53EC1A2BFBF7F7FF41EC100B5C
:1047C000CCE7000000000000000000000000F03F07
:1047D0004454000000000000000000000000E03F22
:1047E0003333D33F0000E93F000000000000D23F18
:1047F00070B504462DED028B4D1E00EBC500B0EEEA
:10480000408AF0EE608A90ED000B35F0060017D07C
:1048100053EC182B51EC100BFBF7CAFF41EC100BBB
:104820006D1E04EBC50090ED001B51EC100B53EC1A
:10483000112BFBF716FF41EC100B35F00600E7D10A
:10484000022D36D0042D1CD0062D1CBFBDEC028BD2
:1048500070BD53EC182B51EC100BFBF7A9FF94ED36
:104860000A1B53EC112BFBF7FCFE53EC182BFBF748
:104870009FFF94ED081B53EC112BFBF7F2FE41EC6C
:10488000100B53EC182B51EC100BFBF791FF94ED30
:10489000061B53EC112BFBF7E4FE53EC182BFBF734
:1048A00087FF94ED040B53EC102BFBF7DAFE41EC81
:1048B000100B53EC182B51EC100BFBF779FF94ED18
:1048C000021B53EC112BFBF7CCFE53EC182BFBF720
:1048D0006FFF94ED001B53EC112BFBF7C2FEBDECF8
:1048E000028B41EC100B70BD31B504462DED040B6D
:1048F0002DED0A8BB0EE41BAF0EE61BA0B989DED4A
:104900000A0B20F00040B0F1795F0DDA51EC100B8A
:10491000FFF774FB042808BF00F0C2F89DED0A0BF6
:10492000BDEC0A8B05B030BD53EC102B51EC100BD5
:10493000FBF73EFF41EC180B9DED0A0B53EC182BD7
:1049400051EC100BFBF734FF41EC190B2C48B0EE87
:10495000480AF0EE680A05217844FFF749FF9FED09
:104960002ACBB0EE40AAF0EE60AA9CB353EC1C2B0D
:1049700051EC190BFBF71CFF41EC1C0B53EC1A2BF1
:1049800051EC190BFBF714FF9FED210B41EC190BB8
:1049900053EC102B51EC1B0BFBF70AFF53EC192BBC
:1049A000FBF700FF53EC182BFBF702FF53EC1B2B1C
:1049B000FBF7F8FE53EC1C2BFBF7F4FE9DED0A1BF6
:1049C00053EC112BFBF7F1FEBDEC0A8B05B041EC6B
:1049D000100B30BDFFE753EC1A2B51EC180BFBF713
:1049E000E7FE53EC1C2BFBF73CFE53EC192BFBF7BB
:1049F000DFFE9DED0A1B53EC112BFBF732FEE3E7C4
:104A0000CC52000000000000495555555555C5BF12
:104A1000000000000000E03F2DE9F04782460F4C07
:104A200010480D4E0E4F001B4FF0000820F00705F8
:104A30004FF0010900221146504602F061FD0028A6
:104A400002D1306810B10020BDE8F0873C60C4E9B5
:104A50000058C6F80090EDE784000020A4AD0120C6
:104A600080000020A0AF012010B553EC102B51ECBA
:104A7000100BFBF7F6FD41EC100B10BD0000000021
:104A80009FED050B10B553EC102B51EC100BFCF700
:104A900026F941EC100B10BD0000000000000000E2
:104AA0009FED050B10B553EC102B51EC100BFBF7E1
:104AB0007FFE41EC100B10BD000000000000001054
:104AC00002E008C8121F08C1002AFAD170477047D7
:104AD000002001E001C1121F002AFBD17047000035
:104AE0000149086070470000880000202DE9FF5F41
:104AF00082B00021DDE90430020DDDF840B003434F
:104B000018D044F61050A2F2FF3242431514119807
:104B100001281FD0A5EB0B00401C5FEA000A4FF0F4
:104B200000064E4FDFF83891B046504615D5CAF111
:104B3000000413E0119801244AA3012801D16FEA6F
:104B40000B010298119AC0E90031C0E9024206B097
:104B5000BDE8F09FCBF10000DFE704460021404AAA
:104B6000491842EB0450CDE9001012E0E00707D0ED
:104B700032463B4640464946FBF71AFE8046894688
:104B800032463B4610461946FBF712FE06460F46D4
:104B90006410002CEAD1DDE90401DDE90023BAF15B
:104BA000000F06DAFBF704FE42464B46FBF700FE19
:104BB00005E0FCF794F842464B46FCF790F80446B3
:104BC0000E460022284BFBF7E7FE03D84FF0FF30DC
:104BD000014607E00022254B20463146FBF741FD08
:104BE000FCF7F8F8102409E0002C0ADB0A22002365
:104BF000FBF700FF039B30321A55641E50EA010296
:104C0000F2D1641C039AC4F111031444119A012ACD
:104C100003D0012208430DD10AE0084304D000204C
:104C20004FF0110B119072E7A3EB0B056D1E0DE019
:104C30005B4504DD4FF0000205F1010504E003DAF5
:104C40004FF00002A5F10105002AECD0029811995D
:104C5000C0E90231C0E9004579E7000000001440D6
:104C60000000F03F300000000000F0430000E03F93
:104C700030380A2801D20120704700207047000018
:104C80002DE9FF4F95B09A46884606460025EEE18D
:104C9000252877D100242746F94A0121039400E012
:104CA000044316F8013F203B01FA03F01042F7D10C
:104CB00030782A2811D06FF02F033078A0F130021D
:104CC000092A16D8039A44F0020402EB820203EB8D
:104CD00042021044761C0390EFE758F8042B03922D
:104CE000002A03DA504244F40054039044F00204D2
:104CF000761C30782E2816D116F8010F44F00404E3
:104D00002A280DD06FF02F023078A0F13003092B44
:104D100009D807EB870302EB4303C718761CF3E7B8
:104D200058F8047B761C30786C280FD006DC4C28B1
:104D300017D068280DD06A2814D104E0742810D048
:104D40007A280FD10DE044F400140AE044F48014F2
:104D500001E044F440147278824202D104F58014D8
:104D6000761C761C307866280BD013DC582877D058
:104D700009DC002875D04528F6D04628F4D047280D
:104D80001AD193E118E0632835D0642879D06528DA
:104D900012D18BE1702873D008DC6728F1D0692824
:104DA0006FD06E280DD06F2806D1ACE073282CD0C0
:104DB000752874D0782853D05246179990476D1CA7
:104DC00054E1C4F30250022809D003280DD0D8F8CA
:104DD000001004280DD00D6008F1040846E1D8F851
:104DE0000010EA17C1E90052F6E7D8F800100D806C
:104DF000F2E70D70F0E718F8041B8DF800100020A2
:104E00008DF80100EB46012003E058F804BB4FF099
:104E1000FF3061074FF0000102D40DE009F10101FC
:104E20008946B9420FDA8145F8DB1BF809100029E1
:104E3000F4D108E009F1010189468142FADB1BF84F
:104E400009100029F6D103985346A0EB0907214623
:104E50003846179A00F080FA284400EB090507E06D
:104E600044E008E10DE01BF8010B5246179990470A
:104E7000B9F10109F7D2534621463846179AF2E0B4
:104E800039E00A21C4F302524FF0000B0091022ACC
:104E900006D058F8040BC117032A09D00AE023E012
:104EA00008F1070020F00702F2E80201904605E051
:104EB00000B2C117042A01D140B2C117002906DA95
:104EC0000A460021404261EB02012D2202E0220548
:104ED00004D52B228DF80420012203E0E20701D043
:104EE0002022F7E7914657E00A2100E010214FF019
:104EF000000B00910BE010214FF0000B44F0040474
:104F00000827009103E008204FF0000B0090C4F345
:104F10000252022A05D058F8040B0021032A08D0B7
:104F200008E008F1070020F00702F2E802019046CD
:104F300003E080B2042A00D1C0B24FF0000922077A
:104F40002AD53278702A07D0DDF800C08CF0100C1A
:104F50005CEA0B0C05D00EE040228DF80420012203
:104F600008E050EA010306D030238DF804308DF8B4
:104F7000052002229146009B83F0080353EA0B03AD
:104F80000AD150EA010201D1620705D530228DF81D
:104F900004204FF001097F1E3278582A04D039A22C
:104FA0000C920CAA02920BE03BA2F9E75B46009A36
:104FB000FBF720FD0C9B9B5C029A521E0292137021
:104FC00050EA0102F2D1029804A9081A00F1200B5C
:104FD000600702D524F4803400E001275F4502DD3C
:104FE000A7EB0B0000E0002000EB0B010090039802
:104FF0004944401A0390E00306D453462146179AC9
:10500000039800F0A9F90544002706E001A85246DC
:10501000C05D179990476D1C7F1C4F45F6DBE00380
:105020000CD553462146179A039800F095F905448C
:1050300004E030205246179990476D1C0099481E95
:1050400000900029F5DC08E00298029952460078A9
:10505000491C0291179990476D1CBBF10001ABF1FF
:10506000010BF1DC5BE100F065F90544761C30785A
:1050700000287FF40DAE19B02846BDE8F08F00007F
:10508000092801003031323334353637383961621E
:1050900063646566000000003031323334353637E2
:1050A000383941424344454600000000600700D4BF
:1050B000062708F1070020F00700F0E802238046E9
:1050C00003F0004C5FEA0C0001D097A009E0200536
:1050D00001D596A005E0E00701D095A001E0AFF270
:1050E0004C001390307823F0004365280CD006DC88
:1050F000452809D046281DD047287FD13BE06628A7
:1051000018D067287AD136E00021112F01DB112059
:1051100000E0781CCDE9000104A90CA8FFF7E6FC2B
:10512000DDE90D010C9A4FF0000B07F10109109217
:1051300000914EE04FF000400097CDE9011004A926
:105140000CA8FFF7D3FCDDE90D020C9B0F994FF083
:10515000000B91461093009211B9791C00EB0109E4
:10516000B7EB090003D4C0F1FF3B07F10109A9EB3C
:105170000700019042E0012F00DA01270021112FE2
:1051800001DD112000E03846CDE9000104A90CA89A
:10519000FFF7ACFCDDE90D010C9A00914FF0000B1C
:1051A000B946109221070FD4009A4A4503DA914676
:1051B00001E0A9F10109B9F1010F05DD109AA9F18A
:1051C0000101515C3029F4D0B84202DA10F1040F29
:1051D00003DA0121CDE9011010E0002803DC83444B
:1051E000A9EB000102E0411C494500DD8946A0EB26
:1051F0000B00401C01904FF000400290200705D4A6
:105200000198484502DB4FF0FF30019000208DF8F7
:105210004B0002980DF14B07B0F1004F25D0022052
:105220000C902B200D90029800280CDA404202903E
:105230002D200D9007E00A210298FBF7C5FB3031C5
:10524000029007F8011D0C99481E0C900029F2DC11
:1052500002980028EFD1791E0D980870307800F080
:10526000200040F0450007F8020D11A8C01BC01D2A
:1052700002901398007800B1012000EB0901019819
:1052800001EBE071029801440398401A401E03901C
:10529000E00306D453462146179A039800F05CF8C1
:1052A00005441398007818B15246179990476D1C21
:1052B000E00323D553462146179A039800F04CF893
:1052C00005441BE0BBF1000F07DB0098584504DDE7
:1052D0001098179910F80B0001E0179930205246EA
:1052E000904701980BF1010B401E05F1010501905B
:1052F00004D12E205246179990476D1CB9F1000138
:10530000A9F10109DEDC05E017F8010B52461799F7
:1053100090476D1C0299481E02900029F4DC534608
:105320002146179A03989EE62D0000002B000000EE
:10533000200000002DE9F041044600251E461746D6
:10534000880404D405E039462020B0476D1C641E53
:10535000F9D52846BDE8F0812DE9F0410446002545
:105360001E469046C80301D5302700E02027880458
:1053700004D505E041463846B0476D1C641EF9D59A
:105380002846BDE8F0810A68531C0B601070704716
:1053900070B5044600250948008800F4004058B163
:1053A000002006490988C1F30E01054A50542146E0
:1053B0001046FAF762FF0546284670BD0C00002033
:1053C000F802002010B500BF1748008800F0400028
:1053D0000028F9D02B201449091D08800F2001F066
:1053E00097FE00BF1048008800F040000028F9D068
:1053F0002B200D49091D08800F2001F089FE00BFF8
:105400000948008800F040000028F9D02B20064908
:10541000091D08804FF4FA7001F07AFE142203A1EE
:1054200003A000F007F810BD004800404F4B0000FB
:10543000415400002DE9F04106460C461546002770
:10544000002014490880314613A002F0F3FDECB1AE
:10545000E5B114E00A2001F05BFE0E48008800F47C
:10546000004060B12046FFF793FF28B12246314645
:105470000BA0FEF78DFD06E0002006490880681E9F
:1054800080B2051EE6D100BF05B901273846BDE848
:10549000F08100000C00002025730D0A00000000C0
:1054A00025732061636B3A25730D0A0038B52021FE
:1054B000002002F077F9044613E0FFF783FFC822CB
:1054C0002AA12BA0FFF7B6FF4FF4487001F020FE91
:1054D0004FF6FF704723C822372100902820FCF7A1
:1054E00091F8142221A126A0FFF7A4FF0028E4D1FF
:1054F00000BF14221DA123A0FFF79CFF0028F8D1B4
:1055000032221AA121A0FFF795FF142217A122A091
:10551000FFF790FF4FF47A7001F0FAFD4FF47A70C4
:1055200001F0F6FD4FF47A7001F0F2FD4FF47A705D
:1055300001F0EEFD14220DA119A0FFF77BFF1B481F
:1055400003681B481BA102682046FEF731FD00BF1F
:105550004FF496721CA12046FFF76CFF0028F7D18C
:10556000214602F00DF9002038BD00004F4B00002D
:1055700041542B4349504D4F44453D3000000000FD
:1055800041540000415445300000000041542B4379
:10559000574D4F44453D310041542B525354000068
:1055A00041542B4349504D55583D30005400002084
:1055B0004C00002041542B43574A41503D22257353
:1055C000222C2225732200005749464920474F5478
:1055D00020495000014609B1086808B90020704709
:1055E00019B1D1E90120904201D30846F7E702E062
:1055F0008868401C886041B1D1E90120904204D202
:105600008A680868805C2028F2DDD1E90120904298
:1056100002D18868401E88600846E0E770B50446FD
:10562000002522E02568A08900F4807020B9A068D8
:1056300010B1A068FFF7F2FFA08900F4807028B9CC
:10564000206918B10A4A206951688847A08900F486
:10565000007028B9206A18B1054A206A5168884745
:1056600003484168204688472C46002CDAD170BD9B
:1056700074000020024800680149496808447047E6
:105680006C00002070B504460D46002229462046D5
:1056900001F05AFE70BD70B5044628202168884785
:1056A00005461DB128212846FAF7DCFD284670BDC5
:1056B00010B5044600221146204600F06BF810BDDC
:1056C0002DE9F0478AB004460E46154698461C213F
:1056D00003A8FAF7C7FD002700202C49086048609E
:1056E00004B106B932E00394049600200590284ADC
:1056F00007CA07AB07C32648FFF7CDFF074607B920
:1057000024E003A802F078FC8246FFF763FF81469D
:105710004946384602F09CFB00B917E0B8F1000F8B
:105720000BD003A8FFF756FFDDE90410884203D22F
:1057300005990398405C00B108E01DB105990398F4
:105740000844286038460AB0BDE8F08717B13846EB
:10575000FFF764FFC4B1019400200290DDE904105A
:10576000884202D20598029004E0049810B104988F
:10577000401E02901DB1DDE9010108442860034884
:10578000DDE9011206C000BF0020DCE76C0000204C
:10579000740000202DE9F04104460D46164614B968
:1057A0000020BDE8F0812046FAF779FD471C33461A
:1057B0002A4639462046FFF783FFF2E70FB597B038
:1057C00019980D9000EBD070C0F34F00159015990B
:1057D0001798401A80B2149015991898401A80B200
:1057E00013901598C0B24FF6FF7302460D90DDE995
:1057F0001701FBF7F1FD1598001FC0B20023024608
:105800000D90DDE91701FBF7E7FD00200E9028E180
:105810000E98FBF750F89FEDFE0B53EC102BCDE9E3
:1058200000019DED000B51EC100BFAF7C1FFCDE923
:1058300002019DED020BFEF78FFC8DED060B159816
:10584000001F0390FBF726F8CDE904019DED060B40
:1058500053EC102B9DED040B51EC100BFAF7A8FF45
:10586000CDE90A01DDE9140108440790FBF712F8BD
:10587000CDE908019DED0A0B53EC102B9DED080BB3
:1058800051EC100BFAF7EDFECDE90C019DED0C0B80
:1058900051EC100BFBF73BF880B212900E98FBF71F
:1058A0000AF89FEDDB0B53EC102BCDE900019DEDC9
:1058B000000B51EC100BFAF77BFFCDE902019DEDD7
:1058C000020BFEF7E5FB8DED060B1598001F03900C
:1058D000FAF7E0FFCDE904019DED060B53EC102B28
:1058E0009DED040B51EC100BFAF762FFCDE90A01B4
:1058F0001399159808440790FAF7CCFFCDE90801F1
:105900009DED0A0B53EC102B9DED080B51EC100B89
:10591000FAF748FFCDE90C019DED0C0B51EC100B93
:10592000FAF7F5FF80B210900E98FAF7C4FF9FEDDA
:10593000B80B53EC102BCDE900019DED000B51ECA1
:10594000100BFAF735FFCDE902019DED020BFEF7D2
:1059500003FC8DED060B1A991598401A0390FAF77F
:1059600099FFCDE904019DED060B53EC102B9DED45
:10597000040B51EC100BFAF71BFFCDE90A01DDE92E
:10598000140108440790FAF785FFCDE908019DED61
:105990000A0B53EC102B9DED080B51EC100BFAF792
:1059A00060FECDE90C019DED0C0B51EC100BFAF7EC
:1059B000AEFF80B211900E98FAF77DFF9FED940B29
:1059C00053EC102BCDE900019DED000B51EC100BB9
:1059D000FAF7EEFECDE902019DED020BFEF758FB52
:1059E0008DED060B1A991598401A0390FAF752FF9D
:1059F000CDE904019DED060B53EC102B9DED040B3E
:105A000051EC100BFAF7D4FECDE90A011599139861
:105A100008440790FAF73EFFCDE908019DED0A0B17
:105A200053EC102B9DED080B51EC100BFAF7BAFE5E
:105A3000CDE90C019DED0C0B51EC100BFAF767FF53
:105A400080B20F904FF6FF700021CDE90010DDE924
:105A50000F31DDE9112001F0A0FC0E98401C80B24E
:105A60000E900E983C28FFF6D3AE00200E9031E148
:105A70000E98FAF720FF9FED680B53EC102BCDE941
:105A800000019DED000B51EC100BFAF791FECDE9F2
:105A900002019DED020BFEF75FFB8DED060B1598E5
:105AA000401F0390FAF7F6FECDE904019DED060BC9
:105AB00053EC102B9DED040B51EC100BFAF778FE14
:105AC000CDE90A01DDE9140108440790FAF7E2FE86
:105AD000CDE908019DED0A0B53EC102B9DED080B51
